{
  "_format": "hh-sol-artifact-1",
  "contractName": "Lottery",
  "sourceName": "contracts/Lottery.sol",
  "abi": [
    {
      "inputs": [
        {
          "internalType": "address",
          "name": "_vrfCoordinator",
          "type": "address"
        },
        {
          "internalType": "uint256",
          "name": "entranceFees",
          "type": "uint256"
        },
        {
          "internalType": "bytes32",
          "name": "gasLane",
          "type": "bytes32"
        },
        {
          "internalType": "uint64",
          "name": "subId",
          "type": "uint64"
        },
        {
          "internalType": "uint32",
          "name": "callBackGasLimit",
          "type": "uint32"
        },
        {
          "internalType": "uint256",
          "name": "interval",
          "type": "uint256"
        }
      ],
      "stateMutability": "nonpayable",
      "type": "constructor"
    },
    {
      "inputs": [
        {
          "internalType": "uint256",
          "name": "currentBalance",
          "type": "uint256"
        },
        {
          "internalType": "uint256",
          "name": "players",
          "type": "uint256"
        },
        {
          "internalType": "uint256",
          "name": "lotteryState",
          "type": "uint256"
        }
      ],
      "name": "Lottery_Upkeep_Not_Needed",
      "type": "error"
    },
    {
      "inputs": [],
      "name": "Lottery__Is_Not_Open",
      "type": "error"
    },
    {
      "inputs": [],
      "name": "Lottery__Not_Have_Enough_Eth",
      "type": "error"
    },
    {
      "inputs": [],
      "name": "Lottery__Transaction_Failed",
      "type": "error"
    },
    {
      "inputs": [
        {
          "internalType": "address",
          "name": "have",
          "type": "address"
        },
        {
          "internalType": "address",
          "name": "want",
          "type": "address"
        }
      ],
      "name": "OnlyCoordinatorCanFulfill",
      "type": "error"
    },
    {
      "anonymous": false,
      "inputs": [
        {
          "indexed": true,
          "internalType": "address",
          "name": "player",
          "type": "address"
        }
      ],
      "name": "lotteryEnter",
      "type": "event"
    },
    {
      "anonymous": false,
      "inputs": [
        {
          "indexed": true,
          "internalType": "address",
          "name": "recentWinners",
          "type": "address"
        }
      ],
      "name": "previousRecentWinners",
      "type": "event"
    },
    {
      "anonymous": false,
      "inputs": [
        {
          "indexed": true,
          "internalType": "uint256",
          "name": "requestId",
          "type": "uint256"
        }
      ],
      "name": "requestedLotteryWinner",
      "type": "event"
    },
    {
      "inputs": [
        {
          "internalType": "bytes",
          "name": "",
          "type": "bytes"
        }
      ],
      "name": "checkUpkeep",
      "outputs": [
        {
          "internalType": "bool",
          "name": "upkeepNeeded",
          "type": "bool"
        },
        {
          "internalType": "bytes",
          "name": "",
          "type": "bytes"
        }
      ],
      "stateMutability": "nonpayable",
      "type": "function"
    },
    {
      "inputs": [],
      "name": "getEntranceFees",
      "outputs": [
        {
          "internalType": "uint256",
          "name": "",
          "type": "uint256"
        }
      ],
      "stateMutability": "view",
      "type": "function"
    },
    {
      "inputs": [],
      "name": "getInterval",
      "outputs": [
        {
          "internalType": "uint256",
          "name": "",
          "type": "uint256"
        }
      ],
      "stateMutability": "view",
      "type": "function"
    },
    {
      "inputs": [],
      "name": "getLastTimeStamp",
      "outputs": [
        {
          "internalType": "uint256",
          "name": "",
          "type": "uint256"
        }
      ],
      "stateMutability": "view",
      "type": "function"
    },
    {
      "inputs": [],
      "name": "getLotteryState",
      "outputs": [
        {
          "internalType": "enum Lottery.lotteryState",
          "name": "",
          "type": "uint8"
        }
      ],
      "stateMutability": "view",
      "type": "function"
    },
    {
      "inputs": [],
      "name": "getNumWords",
      "outputs": [
        {
          "internalType": "uint256",
          "name": "",
          "type": "uint256"
        }
      ],
      "stateMutability": "pure",
      "type": "function"
    },
    {
      "inputs": [
        {
          "internalType": "uint256",
          "name": "index",
          "type": "uint256"
        }
      ],
      "name": "getPlayers",
      "outputs": [
        {
          "internalType": "address",
          "name": "",
          "type": "address"
        }
      ],
      "stateMutability": "view",
      "type": "function"
    },
    {
      "inputs": [],
      "name": "getRecentWinner",
      "outputs": [
        {
          "internalType": "address",
          "name": "",
          "type": "address"
        }
      ],
      "stateMutability": "view",
      "type": "function"
    },
    {
      "inputs": [],
      "name": "getRequesConfirmations",
      "outputs": [
        {
          "internalType": "uint256",
          "name": "",
          "type": "uint256"
        }
      ],
      "stateMutability": "pure",
      "type": "function"
    },
    {
      "inputs": [],
      "name": "lotteryEntrance",
      "outputs": [],
      "stateMutability": "payable",
      "type": "function"
    },
    {
      "inputs": [
        {
          "internalType": "bytes",
          "name": "",
          "type": "bytes"
        }
      ],
      "name": "performUpkeep",
      "outputs": [],
      "stateMutability": "nonpayable",
      "type": "function"
    },
    {
      "inputs": [
        {
          "internalType": "uint256",
          "name": "requestId",
          "type": "uint256"
        },
        {
          "internalType": "uint256[]",
          "name": "randomWords",
          "type": "uint256[]"
        }
      ],
      "name": "rawFulfillRandomWords",
      "outputs": [],
      "stateMutability": "nonpayable",
      "type": "function"
    }
  ],
  "bytecode": "0x6101606040523480156200001257600080fd5b5060405162001807380380620018078339818101604052810190620000389190620002a0565b858073ffffffffffffffffffffffffffffffffffffffff1660808173ffffffffffffffffffffffffffffffffffffffff1660601b81525050506000600260146101000a81548160ff021916908360018111156200009a57620000996200033c565b5b02179055508460c081815250508573ffffffffffffffffffffffffffffffffffffffff1660a08173ffffffffffffffffffffffffffffffffffffffff1660601b815250508360e081815250508267ffffffffffffffff166101008167ffffffffffffffff1660c01b815250508163ffffffff166101208163ffffffff1660e01b81525050426001819055508061014081815250505050505050506200036b565b600080fd5b600073ffffffffffffffffffffffffffffffffffffffff82169050919050565b60006200016c826200013f565b9050919050565b6200017e816200015f565b81146200018a57600080fd5b50565b6000815190506200019e8162000173565b92915050565b6000819050919050565b620001b981620001a4565b8114620001c557600080fd5b50565b600081519050620001d981620001ae565b92915050565b6000819050919050565b620001f481620001df565b81146200020057600080fd5b50565b6000815190506200021481620001e9565b92915050565b600067ffffffffffffffff82169050919050565b62000239816200021a565b81146200024557600080fd5b50565b60008151905062000259816200022e565b92915050565b600063ffffffff82169050919050565b6200027a816200025f565b81146200028657600080fd5b50565b6000815190506200029a816200026f565b92915050565b60008060008060008060c08789031215620002c057620002bf6200013a565b5b6000620002d089828a016200018d565b9650506020620002e389828a01620001c8565b9550506040620002f689828a0162000203565b94505060606200030989828a0162000248565b93505060806200031c89828a0162000289565b92505060a06200032f89828a01620001c8565b9150509295509295509295565b7f4e487b7100000000000000000000000000000000000000000000000000000000600052602160045260246000fd5b60805160601c60a05160601c60c05160e0516101005160c01c6101205160e01c61014051611420620003e7600039600081816106830152610860015260006104b501526000610492015260006104710152600081816105f301526106ef015260006104350152600081816102b2015261030601526114206000f3fe6080604052600436106100a75760003560e01c806353a2c19a1161006457806353a2c19a146101bc5780636b68c03c146101e75780636e04ff0d146102125780638eaec52f1461025057806391ad27b41461025a578063c1c244e814610285576100a7565b80631fe543e3146100ac57806339af02e8146100d55780634585e33b14610100578063460e204914610129578063473f1ddc146101665780634a26d4f414610191575b600080fd5b3480156100b857600080fd5b506100d360048036038101906100ce9190610d2b565b6102b0565b005b3480156100e157600080fd5b506100ea610370565b6040516100f79190610d96565b60405180910390f35b34801561010c57600080fd5b5061012760048036038101906101229190610e0c565b61037d565b005b34801561013557600080fd5b50610150600480360381019061014b9190610e59565b61057d565b60405161015d9190610ec7565b60405180910390f35b34801561017257600080fd5b5061017b6105c4565b6040516101889190610ec7565b60405180910390f35b34801561019d57600080fd5b506101a66105ee565b6040516101b39190610d96565b60405180910390f35b3480156101c857600080fd5b506101d161061b565b6040516101de9190610d96565b60405180910390f35b3480156101f357600080fd5b506101fc61062a565b6040516102099190610f59565b60405180910390f35b34801561021e57600080fd5b5061023960048036038101906102349190611029565b610641565b604051610247929190611115565b60405180910390f35b6102586106ed565b005b34801561026657600080fd5b5061026f61085c565b60405161027c9190610d96565b60405180910390f35b34801561029157600080fd5b5061029a610884565b6040516102a79190610d96565b60405180910390f35b7f000000000000000000000000000000000000000000000000000000000000000073ffffffffffffffffffffffffffffffffffffffff163373ffffffffffffffffffffffffffffffffffffffff161461036257337f00000000000000000000000000000000000000000000000000000000000000006040517f1cf993f4000000000000000000000000000000000000000000000000000000008152600401610359929190611145565b60405180910390fd5b61036c828261088e565b5050565b6000600361ffff16905090565b600061039760405180602001604052806000815250610641565b509050806104065747600080549050600260149054906101000a900460ff1660018111156103c8576103c7610ee2565b5b6040517f2855238c0000000000000000000000000000000000000000000000000000000081526004016103fd9392919061116e565b60405180910390fd5b6001600260146101000a81548160ff0219169083600181111561042c5761042b610ee2565b5b021790555060007f000000000000000000000000000000000000000000000000000000000000000073ffffffffffffffffffffffffffffffffffffffff16635d3b1d307f00000000000000000000000000000000000000000000000000000000000000007f000000000000000000000000000000000000000000000000000000000000000060037f000000000000000000000000000000000000000000000000000000000000000060016040518663ffffffff1660e01b81526004016104f695949392919061121d565b602060405180830381600087803b15801561051057600080fd5b505af1158015610524573d6000803e3d6000fd5b505050506040513d601f19601f820116820180604052508101906105489190611285565b9050807f8436886e362e85384c64d5af46721d434cb451102c48870819d9f8420f55317660405160405180910390a250505050565b6000808281548110610592576105916112b2565b5b9060005260206000200160009054906101000a900473ffffffffffffffffffffffffffffffffffffffff169050919050565b6000600260009054906101000a900473ffffffffffffffffffffffffffffffffffffffff16905090565b6000807f000000000000000000000000000000000000000000000000000000000000000090508091505090565b6000600163ffffffff16905090565b6000600260149054906101000a900460ff16905090565b60006060600080600181111561065a57610659610ee2565b5b600260149054906101000a900460ff16600181111561067c5761067b610ee2565b5b14905060007f0000000000000000000000000000000000000000000000000000000000000000600154426106b09190611310565b119050600080471190506000806000805490501190508380156106d05750825b80156106d95750815b80156106e25750805b955050505050915091565b7f0000000000000000000000000000000000000000000000000000000000000000341015610747576040517fa06bfe1100000000000000000000000000000000000000000000000000000000815260040160405180910390fd5b6000600181111561075b5761075a610ee2565b5b600260149054906101000a900460ff16600181111561077d5761077c610ee2565b5b146107b4576040517f35b4a6d000000000000000000000000000000000000000000000000000000000815260040160405180910390fd5b6000339080600181540180825580915050600190039060005260206000200160009091909190916101000a81548173ffffffffffffffffffffffffffffffffffffffff021916908373ffffffffffffffffffffffffffffffffffffffff1602179055503373ffffffffffffffffffffffffffffffffffffffff167f6ba87006f2c53f2d227d45b3400034f16dbf4f6842816c4880d30170f3a6a16060405160405180910390a2565b60007f0000000000000000000000000000000000000000000000000000000000000000905090565b6000600154905090565b60008080549050826000815181106108a9576108a86112b2565b5b60200260200101516108bb9190611373565b905060008082815481106108d2576108d16112b2565b5b9060005260206000200160009054906101000a900473ffffffffffffffffffffffffffffffffffffffff16905080600260006101000a81548173ffffffffffffffffffffffffffffffffffffffff021916908373ffffffffffffffffffffffffffffffffffffffff16021790555042600181905550600067ffffffffffffffff81111561096257610961610be8565b5b6040519080825280602002602001820160405280156109905781602001602082028036833780820191505090505b50600090805190602001906109a6929190610ae1565b506000600260009054906101000a900473ffffffffffffffffffffffffffffffffffffffff1673ffffffffffffffffffffffffffffffffffffffff16476040516109ef906113d5565b60006040518083038185875af1925050503d8060008114610a2c576040519150601f19603f3d011682016040523d82523d6000602084013e610a31565b606091505b5050905080610a6c576040517f35fc553b00000000000000000000000000000000000000000000000000000000815260040160405180910390fd5b6000600260146101000a81548160ff02191690836001811115610a9257610a91610ee2565b5b02179055508173ffffffffffffffffffffffffffffffffffffffff167fab2bd825f696e5f75168f2daeb855266825000f9236d7475295a205ab12ba95260405160405180910390a25050505050565b828054828255906000526020600020908101928215610b5a579160200282015b82811115610b595782518260006101000a81548173ffffffffffffffffffffffffffffffffffffffff021916908373ffffffffffffffffffffffffffffffffffffffff16021790555091602001919060010190610b01565b5b509050610b679190610b6b565b5090565b5b80821115610b84576000816000905550600101610b6c565b5090565b6000604051905090565b600080fd5b600080fd5b6000819050919050565b610baf81610b9c565b8114610bba57600080fd5b50565b600081359050610bcc81610ba6565b92915050565b600080fd5b6000601f19601f8301169050919050565b7f4e487b7100000000000000000000000000000000000000000000000000000000600052604160045260246000fd5b610c2082610bd7565b810181811067ffffffffffffffff82111715610c3f57610c3e610be8565b5b80604052505050565b6000610c52610b88565b9050610c5e8282610c17565b919050565b600067ffffffffffffffff821115610c7e57610c7d610be8565b5b602082029050602081019050919050565b600080fd5b6000610ca7610ca284610c63565b610c48565b90508083825260208201905060208402830185811115610cca57610cc9610c8f565b5b835b81811015610cf35780610cdf8882610bbd565b845260208401935050602081019050610ccc565b5050509392505050565b600082601f830112610d1257610d11610bd2565b5b8135610d22848260208601610c94565b91505092915050565b60008060408385031215610d4257610d41610b92565b5b6000610d5085828601610bbd565b925050602083013567ffffffffffffffff811115610d7157610d70610b97565b5b610d7d85828601610cfd565b9150509250929050565b610d9081610b9c565b82525050565b6000602082019050610dab6000830184610d87565b92915050565b600080fd5b60008083601f840112610dcc57610dcb610bd2565b5b8235905067ffffffffffffffff811115610de957610de8610db1565b5b602083019150836001820283011115610e0557610e04610c8f565b5b9250929050565b60008060208385031215610e2357610e22610b92565b5b600083013567ffffffffffffffff811115610e4157610e40610b97565b5b610e4d85828601610db6565b92509250509250929050565b600060208284031215610e6f57610e6e610b92565b5b6000610e7d84828501610bbd565b91505092915050565b600073ffffffffffffffffffffffffffffffffffffffff82169050919050565b6000610eb182610e86565b9050919050565b610ec181610ea6565b82525050565b6000602082019050610edc6000830184610eb8565b92915050565b7f4e487b7100000000000000000000000000000000000000000000000000000000600052602160045260246000fd5b60028110610f2257610f21610ee2565b5b50565b6000819050610f3382610f11565b919050565b6000610f4382610f25565b9050919050565b610f5381610f38565b82525050565b6000602082019050610f6e6000830184610f4a565b92915050565b600080fd5b600067ffffffffffffffff821115610f9457610f93610be8565b5b610f9d82610bd7565b9050602081019050919050565b82818337600083830152505050565b6000610fcc610fc784610f79565b610c48565b905082815260208101848484011115610fe857610fe7610f74565b5b610ff3848285610faa565b509392505050565b600082601f8301126110105761100f610bd2565b5b8135611020848260208601610fb9565b91505092915050565b60006020828403121561103f5761103e610b92565b5b600082013567ffffffffffffffff81111561105d5761105c610b97565b5b61106984828501610ffb565b91505092915050565b60008115159050919050565b61108781611072565b82525050565b600081519050919050565b600082825260208201905092915050565b60005b838110156110c75780820151818401526020810190506110ac565b838111156110d6576000848401525b50505050565b60006110e78261108d565b6110f18185611098565b93506111018185602086016110a9565b61110a81610bd7565b840191505092915050565b600060408201905061112a600083018561107e565b818103602083015261113c81846110dc565b90509392505050565b600060408201905061115a6000830185610eb8565b6111676020830184610eb8565b9392505050565b60006060820190506111836000830186610d87565b6111906020830185610d87565b61119d6040830184610d87565b949350505050565b6000819050919050565b6111b8816111a5565b82525050565b600067ffffffffffffffff82169050919050565b6111db816111be565b82525050565b600061ffff82169050919050565b6111f8816111e1565b82525050565b600063ffffffff82169050919050565b611217816111fe565b82525050565b600060a08201905061123260008301886111af565b61123f60208301876111d2565b61124c60408301866111ef565b611259606083018561120e565b611266608083018461120e565b9695505050505050565b60008151905061127f81610ba6565b92915050565b60006020828403121561129b5761129a610b92565b5b60006112a984828501611270565b91505092915050565b7f4e487b7100000000000000000000000000000000000000000000000000000000600052603260045260246000fd5b7f4e487b7100000000000000000000000000000000000000000000000000000000600052601160045260246000fd5b600061131b82610b9c565b915061132683610b9c565b925082821015611339576113386112e1565b5b828203905092915050565b7f4e487b7100000000000000000000000000000000000000000000000000000000600052601260045260246000fd5b600061137e82610b9c565b915061138983610b9c565b92508261139957611398611344565b5b828206905092915050565b600081905092915050565b50565b60006113bf6000836113a4565b91506113ca826113af565b600082019050919050565b60006113e0826113b2565b915081905091905056fea2646970667358221220279c92416efa0b8c10eeb8011a437f3198966bcfb83ee55353bef090cf807c3b64736f6c63430008080033",
  "linkReferences": {},
  "deployedLinkReferences": {}
}