{"contracts/Lottery.sol":{"Lottery":{"abi":[{"inputs":[{"internalType":"address","name":"_vrfCoordinator","type":"address"},{"internalType":"uint256","name":"entranceFees","type":"uint256"},{"internalType":"bytes32","name":"gasLane","type":"bytes32"},{"internalType":"uint64","name":"subId","type":"uint64"},{"internalType":"uint32","name":"callBackGasLimit","type":"uint32"},{"internalType":"uint256","name":"interval","type":"uint256"}],"stateMutability":"nonpayable","type":"constructor"},{"inputs":[{"internalType":"uint256","name":"currentBalance","type":"uint256"},{"internalType":"uint256","name":"players","type":"uint256"},{"internalType":"uint256","name":"lotteryState","type":"uint256"}],"name":"Lottery_Upkeep_Not_Needed","type":"error"},{"inputs":[],"name":"Lottery__Is_Not_Open","type":"error"},{"inputs":[],"name":"Lottery__Not_Have_Enough_Eth","type":"error"},{"inputs":[],"name":"Lottery__Transaction_Failed","type":"error"},{"inputs":[{"internalType":"address","name":"have","type":"address"},{"internalType":"address","name":"want","type":"address"}],"name":"OnlyCoordinatorCanFulfill","type":"error"},{"anonymous":false,"inputs":[{"indexed":true,"internalType":"address","name":"player","type":"address"}],"name":"lotteryEnter","type":"event"},{"anonymous":false,"inputs":[{"indexed":true,"internalType":"address","name":"recentWinners","type":"address"}],"name":"previousRecentWinners","type":"event"},{"anonymous":false,"inputs":[{"indexed":true,"internalType":"uint256","name":"requestId","type":"uint256"}],"name":"requestedLotteryWinner","type":"event"},{"inputs":[{"internalType":"bytes","name":"","type":"bytes"}],"name":"checkUpkeep","outputs":[{"internalType":"bool","name":"upkeepNeeded","type":"bool"},{"internalType":"bytes","name":"","type":"bytes"}],"stateMutability":"nonpayable","type":"function"},{"inputs":[],"name":"getEntranceFees","outputs":[{"internalType":"uint256","name":"","type":"uint256"}],"stateMutability":"view","type":"function"},{"inputs":[],"name":"getInterval","outputs":[{"internalType":"uint256","name":"","type":"uint256"}],"stateMutability":"view","type":"function"},{"inputs":[],"name":"getLastTimeStamp","outputs":[{"internalType":"uint256","name":"","type":"uint256"}],"stateMutability":"view","type":"function"},{"inputs":[],"name":"getLotteryState","outputs":[{"internalType":"enum Lottery.lotteryState","name":"","type":"uint8"}],"stateMutability":"view","type":"function"},{"inputs":[],"name":"getNumWords","outputs":[{"internalType":"uint256","name":"","type":"uint256"}],"stateMutability":"pure","type":"function"},{"inputs":[{"internalType":"uint256","name":"index","type":"uint256"}],"name":"getPlayers","outputs":[{"internalType":"address","name":"","type":"address"}],"stateMutability":"view","type":"function"},{"inputs":[],"name":"getRecentWinner","outputs":[{"internalType":"address","name":"","type":"address"}],"stateMutability":"view","type":"function"},{"inputs":[],"name":"getRequesConfirmations","outputs":[{"internalType":"uint256","name":"","type":"uint256"}],"stateMutability":"pure","type":"function"},{"inputs":[],"name":"lotteryEntrance","outputs":[],"stateMutability":"payable","type":"function"},{"inputs":[{"internalType":"bytes","name":"","type":"bytes"}],"name":"performUpkeep","outputs":[],"stateMutability":"nonpayable","type":"function"},{"inputs":[{"internalType":"uint256","name":"requestId","type":"uint256"},{"internalType":"uint256[]","name":"randomWords","type":"uint256[]"}],"name":"rawFulfillRandomWords","outputs":[],"stateMutability":"nonpayable","type":"function"}],"devdoc":{"kind":"dev","methods":{},"version":1},"evm":{"bytecode":{"linkReferences":{},"object":"6101606040523480156200001257600080fd5b5060405162001807380380620018078339818101604052810190620000389190620002a0565b858073ffffffffffffffffffffffffffffffffffffffff1660808173ffffffffffffffffffffffffffffffffffffffff1660601b81525050506000600260146101000a81548160ff021916908360018111156200009a57620000996200033c565b5b02179055508460c081815250508573ffffffffffffffffffffffffffffffffffffffff1660a08173ffffffffffffffffffffffffffffffffffffffff1660601b815250508360e081815250508267ffffffffffffffff166101008167ffffffffffffffff1660c01b815250508163ffffffff166101208163ffffffff1660e01b81525050426001819055508061014081815250505050505050506200036b565b600080fd5b600073ffffffffffffffffffffffffffffffffffffffff82169050919050565b60006200016c826200013f565b9050919050565b6200017e816200015f565b81146200018a57600080fd5b50565b6000815190506200019e8162000173565b92915050565b6000819050919050565b620001b981620001a4565b8114620001c557600080fd5b50565b600081519050620001d981620001ae565b92915050565b6000819050919050565b620001f481620001df565b81146200020057600080fd5b50565b6000815190506200021481620001e9565b92915050565b600067ffffffffffffffff82169050919050565b62000239816200021a565b81146200024557600080fd5b50565b60008151905062000259816200022e565b92915050565b600063ffffffff82169050919050565b6200027a816200025f565b81146200028657600080fd5b50565b6000815190506200029a816200026f565b92915050565b60008060008060008060c08789031215620002c057620002bf6200013a565b5b6000620002d089828a016200018d565b9650506020620002e389828a01620001c8565b9550506040620002f689828a0162000203565b94505060606200030989828a0162000248565b93505060806200031c89828a0162000289565b92505060a06200032f89828a01620001c8565b9150509295509295509295565b7f4e487b7100000000000000000000000000000000000000000000000000000000600052602160045260246000fd5b60805160601c60a05160601c60c05160e0516101005160c01c6101205160e01c61014051611420620003e7600039600081816106830152610860015260006104b501526000610492015260006104710152600081816105f301526106ef015260006104350152600081816102b2015261030601526114206000f3fe6080604052600436106100a75760003560e01c806353a2c19a1161006457806353a2c19a146101bc5780636b68c03c146101e75780636e04ff0d146102125780638eaec52f1461025057806391ad27b41461025a578063c1c244e814610285576100a7565b80631fe543e3146100ac57806339af02e8146100d55780634585e33b14610100578063460e204914610129578063473f1ddc146101665780634a26d4f414610191575b600080fd5b3480156100b857600080fd5b506100d360048036038101906100ce9190610d2b565b6102b0565b005b3480156100e157600080fd5b506100ea610370565b6040516100f79190610d96565b60405180910390f35b34801561010c57600080fd5b5061012760048036038101906101229190610e0c565b61037d565b005b34801561013557600080fd5b50610150600480360381019061014b9190610e59565b61057d565b60405161015d9190610ec7565b60405180910390f35b34801561017257600080fd5b5061017b6105c4565b6040516101889190610ec7565b60405180910390f35b34801561019d57600080fd5b506101a66105ee565b6040516101b39190610d96565b60405180910390f35b3480156101c857600080fd5b506101d161061b565b6040516101de9190610d96565b60405180910390f35b3480156101f357600080fd5b506101fc61062a565b6040516102099190610f59565b60405180910390f35b34801561021e57600080fd5b5061023960048036038101906102349190611029565b610641565b604051610247929190611115565b60405180910390f35b6102586106ed565b005b34801561026657600080fd5b5061026f61085c565b60405161027c9190610d96565b60405180910390f35b34801561029157600080fd5b5061029a610884565b6040516102a79190610d96565b60405180910390f35b7f000000000000000000000000000000000000000000000000000000000000000073ffffffffffffffffffffffffffffffffffffffff163373ffffffffffffffffffffffffffffffffffffffff161461036257337f00000000000000000000000000000000000000000000000000000000000000006040517f1cf993f4000000000000000000000000000000000000000000000000000000008152600401610359929190611145565b60405180910390fd5b61036c828261088e565b5050565b6000600361ffff16905090565b600061039760405180602001604052806000815250610641565b509050806104065747600080549050600260149054906101000a900460ff1660018111156103c8576103c7610ee2565b5b6040517f2855238c0000000000000000000000000000000000000000000000000000000081526004016103fd9392919061116e565b60405180910390fd5b6001600260146101000a81548160ff0219169083600181111561042c5761042b610ee2565b5b021790555060007f000000000000000000000000000000000000000000000000000000000000000073ffffffffffffffffffffffffffffffffffffffff16635d3b1d307f00000000000000000000000000000000000000000000000000000000000000007f000000000000000000000000000000000000000000000000000000000000000060037f000000000000000000000000000000000000000000000000000000000000000060016040518663ffffffff1660e01b81526004016104f695949392919061121d565b602060405180830381600087803b15801561051057600080fd5b505af1158015610524573d6000803e3d6000fd5b505050506040513d601f19601f820116820180604052508101906105489190611285565b9050807f8436886e362e85384c64d5af46721d434cb451102c48870819d9f8420f55317660405160405180910390a250505050565b6000808281548110610592576105916112b2565b5b9060005260206000200160009054906101000a900473ffffffffffffffffffffffffffffffffffffffff169050919050565b6000600260009054906101000a900473ffffffffffffffffffffffffffffffffffffffff16905090565b6000807f000000000000000000000000000000000000000000000000000000000000000090508091505090565b6000600163ffffffff16905090565b6000600260149054906101000a900460ff16905090565b60006060600080600181111561065a57610659610ee2565b5b600260149054906101000a900460ff16600181111561067c5761067b610ee2565b5b14905060007f0000000000000000000000000000000000000000000000000000000000000000600154426106b09190611310565b119050600080471190506000806000805490501190508380156106d05750825b80156106d95750815b80156106e25750805b955050505050915091565b7f0000000000000000000000000000000000000000000000000000000000000000341015610747576040517fa06bfe1100000000000000000000000000000000000000000000000000000000815260040160405180910390fd5b6000600181111561075b5761075a610ee2565b5b600260149054906101000a900460ff16600181111561077d5761077c610ee2565b5b146107b4576040517f35b4a6d000000000000000000000000000000000000000000000000000000000815260040160405180910390fd5b6000339080600181540180825580915050600190039060005260206000200160009091909190916101000a81548173ffffffffffffffffffffffffffffffffffffffff021916908373ffffffffffffffffffffffffffffffffffffffff1602179055503373ffffffffffffffffffffffffffffffffffffffff167f6ba87006f2c53f2d227d45b3400034f16dbf4f6842816c4880d30170f3a6a16060405160405180910390a2565b60007f0000000000000000000000000000000000000000000000000000000000000000905090565b6000600154905090565b60008080549050826000815181106108a9576108a86112b2565b5b60200260200101516108bb9190611373565b905060008082815481106108d2576108d16112b2565b5b9060005260206000200160009054906101000a900473ffffffffffffffffffffffffffffffffffffffff16905080600260006101000a81548173ffffffffffffffffffffffffffffffffffffffff021916908373ffffffffffffffffffffffffffffffffffffffff16021790555042600181905550600067ffffffffffffffff81111561096257610961610be8565b5b6040519080825280602002602001820160405280156109905781602001602082028036833780820191505090505b50600090805190602001906109a6929190610ae1565b506000600260009054906101000a900473ffffffffffffffffffffffffffffffffffffffff1673ffffffffffffffffffffffffffffffffffffffff16476040516109ef906113d5565b60006040518083038185875af1925050503d8060008114610a2c576040519150601f19603f3d011682016040523d82523d6000602084013e610a31565b606091505b5050905080610a6c576040517f35fc553b00000000000000000000000000000000000000000000000000000000815260040160405180910390fd5b6000600260146101000a81548160ff02191690836001811115610a9257610a91610ee2565b5b02179055508173ffffffffffffffffffffffffffffffffffffffff167fab2bd825f696e5f75168f2daeb855266825000f9236d7475295a205ab12ba95260405160405180910390a25050505050565b828054828255906000526020600020908101928215610b5a579160200282015b82811115610b595782518260006101000a81548173ffffffffffffffffffffffffffffffffffffffff021916908373ffffffffffffffffffffffffffffffffffffffff16021790555091602001919060010190610b01565b5b509050610b679190610b6b565b5090565b5b80821115610b84576000816000905550600101610b6c565b5090565b6000604051905090565b600080fd5b600080fd5b6000819050919050565b610baf81610b9c565b8114610bba57600080fd5b50565b600081359050610bcc81610ba6565b92915050565b600080fd5b6000601f19601f8301169050919050565b7f4e487b7100000000000000000000000000000000000000000000000000000000600052604160045260246000fd5b610c2082610bd7565b810181811067ffffffffffffffff82111715610c3f57610c3e610be8565b5b80604052505050565b6000610c52610b88565b9050610c5e8282610c17565b919050565b600067ffffffffffffffff821115610c7e57610c7d610be8565b5b602082029050602081019050919050565b600080fd5b6000610ca7610ca284610c63565b610c48565b90508083825260208201905060208402830185811115610cca57610cc9610c8f565b5b835b81811015610cf35780610cdf8882610bbd565b845260208401935050602081019050610ccc565b5050509392505050565b600082601f830112610d1257610d11610bd2565b5b8135610d22848260208601610c94565b91505092915050565b60008060408385031215610d4257610d41610b92565b5b6000610d5085828601610bbd565b925050602083013567ffffffffffffffff811115610d7157610d70610b97565b5b610d7d85828601610cfd565b9150509250929050565b610d9081610b9c565b82525050565b6000602082019050610dab6000830184610d87565b92915050565b600080fd5b60008083601f840112610dcc57610dcb610bd2565b5b8235905067ffffffffffffffff811115610de957610de8610db1565b5b602083019150836001820283011115610e0557610e04610c8f565b5b9250929050565b60008060208385031215610e2357610e22610b92565b5b600083013567ffffffffffffffff811115610e4157610e40610b97565b5b610e4d85828601610db6565b92509250509250929050565b600060208284031215610e6f57610e6e610b92565b5b6000610e7d84828501610bbd565b91505092915050565b600073ffffffffffffffffffffffffffffffffffffffff82169050919050565b6000610eb182610e86565b9050919050565b610ec181610ea6565b82525050565b6000602082019050610edc6000830184610eb8565b92915050565b7f4e487b7100000000000000000000000000000000000000000000000000000000600052602160045260246000fd5b60028110610f2257610f21610ee2565b5b50565b6000819050610f3382610f11565b919050565b6000610f4382610f25565b9050919050565b610f5381610f38565b82525050565b6000602082019050610f6e6000830184610f4a565b92915050565b600080fd5b600067ffffffffffffffff821115610f9457610f93610be8565b5b610f9d82610bd7565b9050602081019050919050565b82818337600083830152505050565b6000610fcc610fc784610f79565b610c48565b905082815260208101848484011115610fe857610fe7610f74565b5b610ff3848285610faa565b509392505050565b600082601f8301126110105761100f610bd2565b5b8135611020848260208601610fb9565b91505092915050565b60006020828403121561103f5761103e610b92565b5b600082013567ffffffffffffffff81111561105d5761105c610b97565b5b61106984828501610ffb565b91505092915050565b60008115159050919050565b61108781611072565b82525050565b600081519050919050565b600082825260208201905092915050565b60005b838110156110c75780820151818401526020810190506110ac565b838111156110d6576000848401525b50505050565b60006110e78261108d565b6110f18185611098565b93506111018185602086016110a9565b61110a81610bd7565b840191505092915050565b600060408201905061112a600083018561107e565b818103602083015261113c81846110dc565b90509392505050565b600060408201905061115a6000830185610eb8565b6111676020830184610eb8565b9392505050565b60006060820190506111836000830186610d87565b6111906020830185610d87565b61119d6040830184610d87565b949350505050565b6000819050919050565b6111b8816111a5565b82525050565b600067ffffffffffffffff82169050919050565b6111db816111be565b82525050565b600061ffff82169050919050565b6111f8816111e1565b82525050565b600063ffffffff82169050919050565b611217816111fe565b82525050565b600060a08201905061123260008301886111af565b61123f60208301876111d2565b61124c60408301866111ef565b611259606083018561120e565b611266608083018461120e565b9695505050505050565b60008151905061127f81610ba6565b92915050565b60006020828403121561129b5761129a610b92565b5b60006112a984828501611270565b91505092915050565b7f4e487b7100000000000000000000000000000000000000000000000000000000600052603260045260246000fd5b7f4e487b7100000000000000000000000000000000000000000000000000000000600052601160045260246000fd5b600061131b82610b9c565b915061132683610b9c565b925082821015611339576113386112e1565b5b828203905092915050565b7f4e487b7100000000000000000000000000000000000000000000000000000000600052601260045260246000fd5b600061137e82610b9c565b915061138983610b9c565b92508261139957611398611344565b5b828206905092915050565b600081905092915050565b50565b60006113bf6000836113a4565b91506113ca826113af565b600082019050919050565b60006113e0826113b2565b915081905091905056fea2646970667358221220279c92416efa0b8c10eeb8011a437f3198966bcfb83ee55353bef090cf807c3b64736f6c63430008080033","opcodes":"PUSH2 0x160 PUSH1 0x40 MSTORE CALLVALUE DUP1 ISZERO PUSH3 0x12 JUMPI PUSH1 0x0 DUP1 REVERT JUMPDEST POP PUSH1 0x40 MLOAD PUSH3 0x1807 CODESIZE SUB DUP1 PUSH3 0x1807 DUP4 CODECOPY DUP2 DUP2 ADD PUSH1 0x40 MSTORE DUP2 ADD SWAP1 PUSH3 0x38 SWAP2 SWAP1 PUSH3 0x2A0 JUMP JUMPDEST DUP6 DUP1 PUSH20 0xFFFFFFFFFFFFFFFFFFFFFFFFFFFFFFFFFFFFFFFF AND PUSH1 0x80 DUP2 PUSH20 0xFFFFFFFFFFFFFFFFFFFFFFFFFFFFFFFFFFFFFFFF AND PUSH1 0x60 SHL DUP2 MSTORE POP POP POP PUSH1 0x0 PUSH1 0x2 PUSH1 0x14 PUSH2 0x100 EXP DUP2 SLOAD DUP2 PUSH1 0xFF MUL NOT AND SWAP1 DUP4 PUSH1 0x1 DUP2 GT ISZERO PUSH3 0x9A JUMPI PUSH3 0x99 PUSH3 0x33C JUMP JUMPDEST JUMPDEST MUL OR SWAP1 SSTORE POP DUP5 PUSH1 0xC0 DUP2 DUP2 MSTORE POP POP DUP6 PUSH20 0xFFFFFFFFFFFFFFFFFFFFFFFFFFFFFFFFFFFFFFFF AND PUSH1 0xA0 DUP2 PUSH20 0xFFFFFFFFFFFFFFFFFFFFFFFFFFFFFFFFFFFFFFFF AND PUSH1 0x60 SHL DUP2 MSTORE POP POP DUP4 PUSH1 0xE0 DUP2 DUP2 MSTORE POP POP DUP3 PUSH8 0xFFFFFFFFFFFFFFFF AND PUSH2 0x100 DUP2 PUSH8 0xFFFFFFFFFFFFFFFF AND PUSH1 0xC0 SHL DUP2 MSTORE POP POP DUP2 PUSH4 0xFFFFFFFF AND PUSH2 0x120 DUP2 PUSH4 0xFFFFFFFF AND PUSH1 0xE0 SHL DUP2 MSTORE POP POP TIMESTAMP PUSH1 0x1 DUP2 SWAP1 SSTORE POP DUP1 PUSH2 0x140 DUP2 DUP2 MSTORE POP POP POP POP POP POP POP POP PUSH3 0x36B JUMP JUMPDEST PUSH1 0x0 DUP1 REVERT JUMPDEST PUSH1 0x0 PUSH20 0xFFFFFFFFFFFFFFFFFFFFFFFFFFFFFFFFFFFFFFFF DUP3 AND SWAP1 POP SWAP2 SWAP1 POP JUMP JUMPDEST PUSH1 0x0 PUSH3 0x16C DUP3 PUSH3 0x13F JUMP JUMPDEST SWAP1 POP SWAP2 SWAP1 POP JUMP JUMPDEST PUSH3 0x17E DUP2 PUSH3 0x15F JUMP JUMPDEST DUP2 EQ PUSH3 0x18A JUMPI PUSH1 0x0 DUP1 REVERT JUMPDEST POP JUMP JUMPDEST PUSH1 0x0 DUP2 MLOAD SWAP1 POP PUSH3 0x19E DUP2 PUSH3 0x173 JUMP JUMPDEST SWAP3 SWAP2 POP POP JUMP JUMPDEST PUSH1 0x0 DUP2 SWAP1 POP SWAP2 SWAP1 POP JUMP JUMPDEST PUSH3 0x1B9 DUP2 PUSH3 0x1A4 JUMP JUMPDEST DUP2 EQ PUSH3 0x1C5 JUMPI PUSH1 0x0 DUP1 REVERT JUMPDEST POP JUMP JUMPDEST PUSH1 0x0 DUP2 MLOAD SWAP1 POP PUSH3 0x1D9 DUP2 PUSH3 0x1AE JUMP JUMPDEST SWAP3 SWAP2 POP POP JUMP JUMPDEST PUSH1 0x0 DUP2 SWAP1 POP SWAP2 SWAP1 POP JUMP JUMPDEST PUSH3 0x1F4 DUP2 PUSH3 0x1DF JUMP JUMPDEST DUP2 EQ PUSH3 0x200 JUMPI PUSH1 0x0 DUP1 REVERT JUMPDEST POP JUMP JUMPDEST PUSH1 0x0 DUP2 MLOAD SWAP1 POP PUSH3 0x214 DUP2 PUSH3 0x1E9 JUMP JUMPDEST SWAP3 SWAP2 POP POP JUMP JUMPDEST PUSH1 0x0 PUSH8 0xFFFFFFFFFFFFFFFF DUP3 AND SWAP1 POP SWAP2 SWAP1 POP JUMP JUMPDEST PUSH3 0x239 DUP2 PUSH3 0x21A JUMP JUMPDEST DUP2 EQ PUSH3 0x245 JUMPI PUSH1 0x0 DUP1 REVERT JUMPDEST POP JUMP JUMPDEST PUSH1 0x0 DUP2 MLOAD SWAP1 POP PUSH3 0x259 DUP2 PUSH3 0x22E JUMP JUMPDEST SWAP3 SWAP2 POP POP JUMP JUMPDEST PUSH1 0x0 PUSH4 0xFFFFFFFF DUP3 AND SWAP1 POP SWAP2 SWAP1 POP JUMP JUMPDEST PUSH3 0x27A DUP2 PUSH3 0x25F JUMP JUMPDEST DUP2 EQ PUSH3 0x286 JUMPI PUSH1 0x0 DUP1 REVERT JUMPDEST POP JUMP JUMPDEST PUSH1 0x0 DUP2 MLOAD SWAP1 POP PUSH3 0x29A DUP2 PUSH3 0x26F JUMP JUMPDEST SWAP3 SWAP2 POP POP JUMP JUMPDEST PUSH1 0x0 DUP1 PUSH1 0x0 DUP1 PUSH1 0x0 DUP1 PUSH1 0xC0 DUP8 DUP10 SUB SLT ISZERO PUSH3 0x2C0 JUMPI PUSH3 0x2BF PUSH3 0x13A JUMP JUMPDEST JUMPDEST PUSH1 0x0 PUSH3 0x2D0 DUP10 DUP3 DUP11 ADD PUSH3 0x18D JUMP JUMPDEST SWAP7 POP POP PUSH1 0x20 PUSH3 0x2E3 DUP10 DUP3 DUP11 ADD PUSH3 0x1C8 JUMP JUMPDEST SWAP6 POP POP PUSH1 0x40 PUSH3 0x2F6 DUP10 DUP3 DUP11 ADD PUSH3 0x203 JUMP JUMPDEST SWAP5 POP POP PUSH1 0x60 PUSH3 0x309 DUP10 DUP3 DUP11 ADD PUSH3 0x248 JUMP JUMPDEST SWAP4 POP POP PUSH1 0x80 PUSH3 0x31C DUP10 DUP3 DUP11 ADD PUSH3 0x289 JUMP JUMPDEST SWAP3 POP POP PUSH1 0xA0 PUSH3 0x32F DUP10 DUP3 DUP11 ADD PUSH3 0x1C8 JUMP JUMPDEST SWAP2 POP POP SWAP3 SWAP6 POP SWAP3 SWAP6 POP SWAP3 SWAP6 JUMP JUMPDEST PUSH32 0x4E487B7100000000000000000000000000000000000000000000000000000000 PUSH1 0x0 MSTORE PUSH1 0x21 PUSH1 0x4 MSTORE PUSH1 0x24 PUSH1 0x0 REVERT JUMPDEST PUSH1 0x80 MLOAD PUSH1 0x60 SHR PUSH1 0xA0 MLOAD PUSH1 0x60 SHR PUSH1 0xC0 MLOAD PUSH1 0xE0 MLOAD PUSH2 0x100 MLOAD PUSH1 0xC0 SHR PUSH2 0x120 MLOAD PUSH1 0xE0 SHR PUSH2 0x140 MLOAD PUSH2 0x1420 PUSH3 0x3E7 PUSH1 0x0 CODECOPY PUSH1 0x0 DUP2 DUP2 PUSH2 0x683 ADD MSTORE PUSH2 0x860 ADD MSTORE PUSH1 0x0 PUSH2 0x4B5 ADD MSTORE PUSH1 0x0 PUSH2 0x492 ADD MSTORE PUSH1 0x0 PUSH2 0x471 ADD MSTORE PUSH1 0x0 DUP2 DUP2 PUSH2 0x5F3 ADD MSTORE PUSH2 0x6EF ADD MSTORE PUSH1 0x0 PUSH2 0x435 ADD MSTORE PUSH1 0x0 DUP2 DUP2 PUSH2 0x2B2 ADD MSTORE PUSH2 0x306 ADD MSTORE PUSH2 0x1420 PUSH1 0x0 RETURN INVALID PUSH1 0x80 PUSH1 0x40 MSTORE PUSH1 0x4 CALLDATASIZE LT PUSH2 0xA7 JUMPI PUSH1 0x0 CALLDATALOAD PUSH1 0xE0 SHR DUP1 PUSH4 0x53A2C19A GT PUSH2 0x64 JUMPI DUP1 PUSH4 0x53A2C19A EQ PUSH2 0x1BC JUMPI DUP1 PUSH4 0x6B68C03C EQ PUSH2 0x1E7 JUMPI DUP1 PUSH4 0x6E04FF0D EQ PUSH2 0x212 JUMPI DUP1 PUSH4 0x8EAEC52F EQ PUSH2 0x250 JUMPI DUP1 PUSH4 0x91AD27B4 EQ PUSH2 0x25A JUMPI DUP1 PUSH4 0xC1C244E8 EQ PUSH2 0x285 JUMPI PUSH2 0xA7 JUMP JUMPDEST DUP1 PUSH4 0x1FE543E3 EQ PUSH2 0xAC JUMPI DUP1 PUSH4 0x39AF02E8 EQ PUSH2 0xD5 JUMPI DUP1 PUSH4 0x4585E33B EQ PUSH2 0x100 JUMPI DUP1 PUSH4 0x460E2049 EQ PUSH2 0x129 JUMPI DUP1 PUSH4 0x473F1DDC EQ PUSH2 0x166 JUMPI DUP1 PUSH4 0x4A26D4F4 EQ PUSH2 0x191 JUMPI JUMPDEST PUSH1 0x0 DUP1 REVERT JUMPDEST CALLVALUE DUP1 ISZERO PUSH2 0xB8 JUMPI PUSH1 0x0 DUP1 REVERT JUMPDEST POP PUSH2 0xD3 PUSH1 0x4 DUP1 CALLDATASIZE SUB DUP2 ADD SWAP1 PUSH2 0xCE SWAP2 SWAP1 PUSH2 0xD2B JUMP JUMPDEST PUSH2 0x2B0 JUMP JUMPDEST STOP JUMPDEST CALLVALUE DUP1 ISZERO PUSH2 0xE1 JUMPI PUSH1 0x0 DUP1 REVERT JUMPDEST POP PUSH2 0xEA PUSH2 0x370 JUMP JUMPDEST PUSH1 0x40 MLOAD PUSH2 0xF7 SWAP2 SWAP1 PUSH2 0xD96 JUMP JUMPDEST PUSH1 0x40 MLOAD DUP1 SWAP2 SUB SWAP1 RETURN JUMPDEST CALLVALUE DUP1 ISZERO PUSH2 0x10C JUMPI PUSH1 0x0 DUP1 REVERT JUMPDEST POP PUSH2 0x127 PUSH1 0x4 DUP1 CALLDATASIZE SUB DUP2 ADD SWAP1 PUSH2 0x122 SWAP2 SWAP1 PUSH2 0xE0C JUMP JUMPDEST PUSH2 0x37D JUMP JUMPDEST STOP JUMPDEST CALLVALUE DUP1 ISZERO PUSH2 0x135 JUMPI PUSH1 0x0 DUP1 REVERT JUMPDEST POP PUSH2 0x150 PUSH1 0x4 DUP1 CALLDATASIZE SUB DUP2 ADD SWAP1 PUSH2 0x14B SWAP2 SWAP1 PUSH2 0xE59 JUMP JUMPDEST PUSH2 0x57D JUMP JUMPDEST PUSH1 0x40 MLOAD PUSH2 0x15D SWAP2 SWAP1 PUSH2 0xEC7 JUMP JUMPDEST PUSH1 0x40 MLOAD DUP1 SWAP2 SUB SWAP1 RETURN JUMPDEST CALLVALUE DUP1 ISZERO PUSH2 0x172 JUMPI PUSH1 0x0 DUP1 REVERT JUMPDEST POP PUSH2 0x17B PUSH2 0x5C4 JUMP JUMPDEST PUSH1 0x40 MLOAD PUSH2 0x188 SWAP2 SWAP1 PUSH2 0xEC7 JUMP JUMPDEST PUSH1 0x40 MLOAD DUP1 SWAP2 SUB SWAP1 RETURN JUMPDEST CALLVALUE DUP1 ISZERO PUSH2 0x19D JUMPI PUSH1 0x0 DUP1 REVERT JUMPDEST POP PUSH2 0x1A6 PUSH2 0x5EE JUMP JUMPDEST PUSH1 0x40 MLOAD PUSH2 0x1B3 SWAP2 SWAP1 PUSH2 0xD96 JUMP JUMPDEST PUSH1 0x40 MLOAD DUP1 SWAP2 SUB SWAP1 RETURN JUMPDEST CALLVALUE DUP1 ISZERO PUSH2 0x1C8 JUMPI PUSH1 0x0 DUP1 REVERT JUMPDEST POP PUSH2 0x1D1 PUSH2 0x61B JUMP JUMPDEST PUSH1 0x40 MLOAD PUSH2 0x1DE SWAP2 SWAP1 PUSH2 0xD96 JUMP JUMPDEST PUSH1 0x40 MLOAD DUP1 SWAP2 SUB SWAP1 RETURN JUMPDEST CALLVALUE DUP1 ISZERO PUSH2 0x1F3 JUMPI PUSH1 0x0 DUP1 REVERT JUMPDEST POP PUSH2 0x1FC PUSH2 0x62A JUMP JUMPDEST PUSH1 0x40 MLOAD PUSH2 0x209 SWAP2 SWAP1 PUSH2 0xF59 JUMP JUMPDEST PUSH1 0x40 MLOAD DUP1 SWAP2 SUB SWAP1 RETURN JUMPDEST CALLVALUE DUP1 ISZERO PUSH2 0x21E JUMPI PUSH1 0x0 DUP1 REVERT JUMPDEST POP PUSH2 0x239 PUSH1 0x4 DUP1 CALLDATASIZE SUB DUP2 ADD SWAP1 PUSH2 0x234 SWAP2 SWAP1 PUSH2 0x1029 JUMP JUMPDEST PUSH2 0x641 JUMP JUMPDEST PUSH1 0x40 MLOAD PUSH2 0x247 SWAP3 SWAP2 SWAP1 PUSH2 0x1115 JUMP JUMPDEST PUSH1 0x40 MLOAD DUP1 SWAP2 SUB SWAP1 RETURN JUMPDEST PUSH2 0x258 PUSH2 0x6ED JUMP JUMPDEST STOP JUMPDEST CALLVALUE DUP1 ISZERO PUSH2 0x266 JUMPI PUSH1 0x0 DUP1 REVERT JUMPDEST POP PUSH2 0x26F PUSH2 0x85C JUMP JUMPDEST PUSH1 0x40 MLOAD PUSH2 0x27C SWAP2 SWAP1 PUSH2 0xD96 JUMP JUMPDEST PUSH1 0x40 MLOAD DUP1 SWAP2 SUB SWAP1 RETURN JUMPDEST CALLVALUE DUP1 ISZERO PUSH2 0x291 JUMPI PUSH1 0x0 DUP1 REVERT JUMPDEST POP PUSH2 0x29A PUSH2 0x884 JUMP JUMPDEST PUSH1 0x40 MLOAD PUSH2 0x2A7 SWAP2 SWAP1 PUSH2 0xD96 JUMP JUMPDEST PUSH1 0x40 MLOAD DUP1 SWAP2 SUB SWAP1 RETURN JUMPDEST PUSH32 0x0 PUSH20 0xFFFFFFFFFFFFFFFFFFFFFFFFFFFFFFFFFFFFFFFF AND CALLER PUSH20 0xFFFFFFFFFFFFFFFFFFFFFFFFFFFFFFFFFFFFFFFF AND EQ PUSH2 0x362 JUMPI CALLER PUSH32 0x0 PUSH1 0x40 MLOAD PUSH32 0x1CF993F400000000000000000000000000000000000000000000000000000000 DUP2 MSTORE PUSH1 0x4 ADD PUSH2 0x359 SWAP3 SWAP2 SWAP1 PUSH2 0x1145 JUMP JUMPDEST PUSH1 0x40 MLOAD DUP1 SWAP2 SUB SWAP1 REVERT JUMPDEST PUSH2 0x36C DUP3 DUP3 PUSH2 0x88E JUMP JUMPDEST POP POP JUMP JUMPDEST PUSH1 0x0 PUSH1 0x3 PUSH2 0xFFFF AND SWAP1 POP SWAP1 JUMP JUMPDEST PUSH1 0x0 PUSH2 0x397 PUSH1 0x40 MLOAD DUP1 PUSH1 0x20 ADD PUSH1 0x40 MSTORE DUP1 PUSH1 0x0 DUP2 MSTORE POP PUSH2 0x641 JUMP JUMPDEST POP SWAP1 POP DUP1 PUSH2 0x406 JUMPI SELFBALANCE PUSH1 0x0 DUP1 SLOAD SWAP1 POP PUSH1 0x2 PUSH1 0x14 SWAP1 SLOAD SWAP1 PUSH2 0x100 EXP SWAP1 DIV PUSH1 0xFF AND PUSH1 0x1 DUP2 GT ISZERO PUSH2 0x3C8 JUMPI PUSH2 0x3C7 PUSH2 0xEE2 JUMP JUMPDEST JUMPDEST PUSH1 0x40 MLOAD PUSH32 0x2855238C00000000000000000000000000000000000000000000000000000000 DUP2 MSTORE PUSH1 0x4 ADD PUSH2 0x3FD SWAP4 SWAP3 SWAP2 SWAP1 PUSH2 0x116E JUMP JUMPDEST PUSH1 0x40 MLOAD DUP1 SWAP2 SUB SWAP1 REVERT JUMPDEST PUSH1 0x1 PUSH1 0x2 PUSH1 0x14 PUSH2 0x100 EXP DUP2 SLOAD DUP2 PUSH1 0xFF MUL NOT AND SWAP1 DUP4 PUSH1 0x1 DUP2 GT ISZERO PUSH2 0x42C JUMPI PUSH2 0x42B PUSH2 0xEE2 JUMP JUMPDEST JUMPDEST MUL OR SWAP1 SSTORE POP PUSH1 0x0 PUSH32 0x0 PUSH20 0xFFFFFFFFFFFFFFFFFFFFFFFFFFFFFFFFFFFFFFFF AND PUSH4 0x5D3B1D30 PUSH32 0x0 PUSH32 0x0 PUSH1 0x3 PUSH32 0x0 PUSH1 0x1 PUSH1 0x40 MLOAD DUP7 PUSH4 0xFFFFFFFF AND PUSH1 0xE0 SHL DUP2 MSTORE PUSH1 0x4 ADD PUSH2 0x4F6 SWAP6 SWAP5 SWAP4 SWAP3 SWAP2 SWAP1 PUSH2 0x121D JUMP JUMPDEST PUSH1 0x20 PUSH1 0x40 MLOAD DUP1 DUP4 SUB DUP2 PUSH1 0x0 DUP8 DUP1 EXTCODESIZE ISZERO DUP1 ISZERO PUSH2 0x510 JUMPI PUSH1 0x0 DUP1 REVERT JUMPDEST POP GAS CALL ISZERO DUP1 ISZERO PUSH2 0x524 JUMPI RETURNDATASIZE PUSH1 0x0 DUP1 RETURNDATACOPY RETURNDATASIZE PUSH1 0x0 REVERT JUMPDEST POP POP POP POP PUSH1 0x40 MLOAD RETURNDATASIZE PUSH1 0x1F NOT PUSH1 0x1F DUP3 ADD AND DUP3 ADD DUP1 PUSH1 0x40 MSTORE POP DUP2 ADD SWAP1 PUSH2 0x548 SWAP2 SWAP1 PUSH2 0x1285 JUMP JUMPDEST SWAP1 POP DUP1 PUSH32 0x8436886E362E85384C64D5AF46721D434CB451102C48870819D9F8420F553176 PUSH1 0x40 MLOAD PUSH1 0x40 MLOAD DUP1 SWAP2 SUB SWAP1 LOG2 POP POP POP POP JUMP JUMPDEST PUSH1 0x0 DUP1 DUP3 DUP2 SLOAD DUP2 LT PUSH2 0x592 JUMPI PUSH2 0x591 PUSH2 0x12B2 JUMP JUMPDEST JUMPDEST SWAP1 PUSH1 0x0 MSTORE PUSH1 0x20 PUSH1 0x0 KECCAK256 ADD PUSH1 0x0 SWAP1 SLOAD SWAP1 PUSH2 0x100 EXP SWAP1 DIV PUSH20 0xFFFFFFFFFFFFFFFFFFFFFFFFFFFFFFFFFFFFFFFF AND SWAP1 POP SWAP2 SWAP1 POP JUMP JUMPDEST PUSH1 0x0 PUSH1 0x2 PUSH1 0x0 SWAP1 SLOAD SWAP1 PUSH2 0x100 EXP SWAP1 DIV PUSH20 0xFFFFFFFFFFFFFFFFFFFFFFFFFFFFFFFFFFFFFFFF AND SWAP1 POP SWAP1 JUMP JUMPDEST PUSH1 0x0 DUP1 PUSH32 0x0 SWAP1 POP DUP1 SWAP2 POP POP SWAP1 JUMP JUMPDEST PUSH1 0x0 PUSH1 0x1 PUSH4 0xFFFFFFFF AND SWAP1 POP SWAP1 JUMP JUMPDEST PUSH1 0x0 PUSH1 0x2 PUSH1 0x14 SWAP1 SLOAD SWAP1 PUSH2 0x100 EXP SWAP1 DIV PUSH1 0xFF AND SWAP1 POP SWAP1 JUMP JUMPDEST PUSH1 0x0 PUSH1 0x60 PUSH1 0x0 DUP1 PUSH1 0x1 DUP2 GT ISZERO PUSH2 0x65A JUMPI PUSH2 0x659 PUSH2 0xEE2 JUMP JUMPDEST JUMPDEST PUSH1 0x2 PUSH1 0x14 SWAP1 SLOAD SWAP1 PUSH2 0x100 EXP SWAP1 DIV PUSH1 0xFF AND PUSH1 0x1 DUP2 GT ISZERO PUSH2 0x67C JUMPI PUSH2 0x67B PUSH2 0xEE2 JUMP JUMPDEST JUMPDEST EQ SWAP1 POP PUSH1 0x0 PUSH32 0x0 PUSH1 0x1 SLOAD TIMESTAMP PUSH2 0x6B0 SWAP2 SWAP1 PUSH2 0x1310 JUMP JUMPDEST GT SWAP1 POP PUSH1 0x0 DUP1 SELFBALANCE GT SWAP1 POP PUSH1 0x0 DUP1 PUSH1 0x0 DUP1 SLOAD SWAP1 POP GT SWAP1 POP DUP4 DUP1 ISZERO PUSH2 0x6D0 JUMPI POP DUP3 JUMPDEST DUP1 ISZERO PUSH2 0x6D9 JUMPI POP DUP2 JUMPDEST DUP1 ISZERO PUSH2 0x6E2 JUMPI POP DUP1 JUMPDEST SWAP6 POP POP POP POP POP SWAP2 POP SWAP2 JUMP JUMPDEST PUSH32 0x0 CALLVALUE LT ISZERO PUSH2 0x747 JUMPI PUSH1 0x40 MLOAD PUSH32 0xA06BFE1100000000000000000000000000000000000000000000000000000000 DUP2 MSTORE PUSH1 0x4 ADD PUSH1 0x40 MLOAD DUP1 SWAP2 SUB SWAP1 REVERT JUMPDEST PUSH1 0x0 PUSH1 0x1 DUP2 GT ISZERO PUSH2 0x75B JUMPI PUSH2 0x75A PUSH2 0xEE2 JUMP JUMPDEST JUMPDEST PUSH1 0x2 PUSH1 0x14 SWAP1 SLOAD SWAP1 PUSH2 0x100 EXP SWAP1 DIV PUSH1 0xFF AND PUSH1 0x1 DUP2 GT ISZERO PUSH2 0x77D JUMPI PUSH2 0x77C PUSH2 0xEE2 JUMP JUMPDEST JUMPDEST EQ PUSH2 0x7B4 JUMPI PUSH1 0x40 MLOAD PUSH32 0x35B4A6D000000000000000000000000000000000000000000000000000000000 DUP2 MSTORE PUSH1 0x4 ADD PUSH1 0x40 MLOAD DUP1 SWAP2 SUB SWAP1 REVERT JUMPDEST PUSH1 0x0 CALLER SWAP1 DUP1 PUSH1 0x1 DUP2 SLOAD ADD DUP1 DUP3 SSTORE DUP1 SWAP2 POP POP PUSH1 0x1 SWAP1 SUB SWAP1 PUSH1 0x0 MSTORE PUSH1 0x20 PUSH1 0x0 KECCAK256 ADD PUSH1 0x0 SWAP1 SWAP2 SWAP1 SWAP2 SWAP1 SWAP2 PUSH2 0x100 EXP DUP2 SLOAD DUP2 PUSH20 0xFFFFFFFFFFFFFFFFFFFFFFFFFFFFFFFFFFFFFFFF MUL NOT AND SWAP1 DUP4 PUSH20 0xFFFFFFFFFFFFFFFFFFFFFFFFFFFFFFFFFFFFFFFF AND MUL OR SWAP1 SSTORE POP CALLER PUSH20 0xFFFFFFFFFFFFFFFFFFFFFFFFFFFFFFFFFFFFFFFF AND PUSH32 0x6BA87006F2C53F2D227D45B3400034F16DBF4F6842816C4880D30170F3A6A160 PUSH1 0x40 MLOAD PUSH1 0x40 MLOAD DUP1 SWAP2 SUB SWAP1 LOG2 JUMP JUMPDEST PUSH1 0x0 PUSH32 0x0 SWAP1 POP SWAP1 JUMP JUMPDEST PUSH1 0x0 PUSH1 0x1 SLOAD SWAP1 POP SWAP1 JUMP JUMPDEST PUSH1 0x0 DUP1 DUP1 SLOAD SWAP1 POP DUP3 PUSH1 0x0 DUP2 MLOAD DUP2 LT PUSH2 0x8A9 JUMPI PUSH2 0x8A8 PUSH2 0x12B2 JUMP JUMPDEST JUMPDEST PUSH1 0x20 MUL PUSH1 0x20 ADD ADD MLOAD PUSH2 0x8BB SWAP2 SWAP1 PUSH2 0x1373 JUMP JUMPDEST SWAP1 POP PUSH1 0x0 DUP1 DUP3 DUP2 SLOAD DUP2 LT PUSH2 0x8D2 JUMPI PUSH2 0x8D1 PUSH2 0x12B2 JUMP JUMPDEST JUMPDEST SWAP1 PUSH1 0x0 MSTORE PUSH1 0x20 PUSH1 0x0 KECCAK256 ADD PUSH1 0x0 SWAP1 SLOAD SWAP1 PUSH2 0x100 EXP SWAP1 DIV PUSH20 0xFFFFFFFFFFFFFFFFFFFFFFFFFFFFFFFFFFFFFFFF AND SWAP1 POP DUP1 PUSH1 0x2 PUSH1 0x0 PUSH2 0x100 EXP DUP2 SLOAD DUP2 PUSH20 0xFFFFFFFFFFFFFFFFFFFFFFFFFFFFFFFFFFFFFFFF MUL NOT AND SWAP1 DUP4 PUSH20 0xFFFFFFFFFFFFFFFFFFFFFFFFFFFFFFFFFFFFFFFF AND MUL OR SWAP1 SSTORE POP TIMESTAMP PUSH1 0x1 DUP2 SWAP1 SSTORE POP PUSH1 0x0 PUSH8 0xFFFFFFFFFFFFFFFF DUP2 GT ISZERO PUSH2 0x962 JUMPI PUSH2 0x961 PUSH2 0xBE8 JUMP JUMPDEST JUMPDEST PUSH1 0x40 MLOAD SWAP1 DUP1 DUP3 MSTORE DUP1 PUSH1 0x20 MUL PUSH1 0x20 ADD DUP3 ADD PUSH1 0x40 MSTORE DUP1 ISZERO PUSH2 0x990 JUMPI DUP2 PUSH1 0x20 ADD PUSH1 0x20 DUP3 MUL DUP1 CALLDATASIZE DUP4 CALLDATACOPY DUP1 DUP3 ADD SWAP2 POP POP SWAP1 POP JUMPDEST POP PUSH1 0x0 SWAP1 DUP1 MLOAD SWAP1 PUSH1 0x20 ADD SWAP1 PUSH2 0x9A6 SWAP3 SWAP2 SWAP1 PUSH2 0xAE1 JUMP JUMPDEST POP PUSH1 0x0 PUSH1 0x2 PUSH1 0x0 SWAP1 SLOAD SWAP1 PUSH2 0x100 EXP SWAP1 DIV PUSH20 0xFFFFFFFFFFFFFFFFFFFFFFFFFFFFFFFFFFFFFFFF AND PUSH20 0xFFFFFFFFFFFFFFFFFFFFFFFFFFFFFFFFFFFFFFFF AND SELFBALANCE PUSH1 0x40 MLOAD PUSH2 0x9EF SWAP1 PUSH2 0x13D5 JUMP JUMPDEST PUSH1 0x0 PUSH1 0x40 MLOAD DUP1 DUP4 SUB DUP2 DUP6 DUP8 GAS CALL SWAP3 POP POP POP RETURNDATASIZE DUP1 PUSH1 0x0 DUP2 EQ PUSH2 0xA2C JUMPI PUSH1 0x40 MLOAD SWAP2 POP PUSH1 0x1F NOT PUSH1 0x3F RETURNDATASIZE ADD AND DUP3 ADD PUSH1 0x40 MSTORE RETURNDATASIZE DUP3 MSTORE RETURNDATASIZE PUSH1 0x0 PUSH1 0x20 DUP5 ADD RETURNDATACOPY PUSH2 0xA31 JUMP JUMPDEST PUSH1 0x60 SWAP2 POP JUMPDEST POP POP SWAP1 POP DUP1 PUSH2 0xA6C JUMPI PUSH1 0x40 MLOAD PUSH32 0x35FC553B00000000000000000000000000000000000000000000000000000000 DUP2 MSTORE PUSH1 0x4 ADD PUSH1 0x40 MLOAD DUP1 SWAP2 SUB SWAP1 REVERT JUMPDEST PUSH1 0x0 PUSH1 0x2 PUSH1 0x14 PUSH2 0x100 EXP DUP2 SLOAD DUP2 PUSH1 0xFF MUL NOT AND SWAP1 DUP4 PUSH1 0x1 DUP2 GT ISZERO PUSH2 0xA92 JUMPI PUSH2 0xA91 PUSH2 0xEE2 JUMP JUMPDEST JUMPDEST MUL OR SWAP1 SSTORE POP DUP2 PUSH20 0xFFFFFFFFFFFFFFFFFFFFFFFFFFFFFFFFFFFFFFFF AND PUSH32 0xAB2BD825F696E5F75168F2DAEB855266825000F9236D7475295A205AB12BA952 PUSH1 0x40 MLOAD PUSH1 0x40 MLOAD DUP1 SWAP2 SUB SWAP1 LOG2 POP POP POP POP POP JUMP JUMPDEST DUP3 DUP1 SLOAD DUP3 DUP3 SSTORE SWAP1 PUSH1 0x0 MSTORE PUSH1 0x20 PUSH1 0x0 KECCAK256 SWAP1 DUP2 ADD SWAP3 DUP3 ISZERO PUSH2 0xB5A JUMPI SWAP2 PUSH1 0x20 MUL DUP3 ADD JUMPDEST DUP3 DUP2 GT ISZERO PUSH2 0xB59 JUMPI DUP3 MLOAD DUP3 PUSH1 0x0 PUSH2 0x100 EXP DUP2 SLOAD DUP2 PUSH20 0xFFFFFFFFFFFFFFFFFFFFFFFFFFFFFFFFFFFFFFFF MUL NOT AND SWAP1 DUP4 PUSH20 0xFFFFFFFFFFFFFFFFFFFFFFFFFFFFFFFFFFFFFFFF AND MUL OR SWAP1 SSTORE POP SWAP2 PUSH1 0x20 ADD SWAP2 SWAP1 PUSH1 0x1 ADD SWAP1 PUSH2 0xB01 JUMP JUMPDEST JUMPDEST POP SWAP1 POP PUSH2 0xB67 SWAP2 SWAP1 PUSH2 0xB6B JUMP JUMPDEST POP SWAP1 JUMP JUMPDEST JUMPDEST DUP1 DUP3 GT ISZERO PUSH2 0xB84 JUMPI PUSH1 0x0 DUP2 PUSH1 0x0 SWAP1 SSTORE POP PUSH1 0x1 ADD PUSH2 0xB6C JUMP JUMPDEST POP SWAP1 JUMP JUMPDEST PUSH1 0x0 PUSH1 0x40 MLOAD SWAP1 POP SWAP1 JUMP JUMPDEST PUSH1 0x0 DUP1 REVERT JUMPDEST PUSH1 0x0 DUP1 REVERT JUMPDEST PUSH1 0x0 DUP2 SWAP1 POP SWAP2 SWAP1 POP JUMP JUMPDEST PUSH2 0xBAF DUP2 PUSH2 0xB9C JUMP JUMPDEST DUP2 EQ PUSH2 0xBBA JUMPI PUSH1 0x0 DUP1 REVERT JUMPDEST POP JUMP JUMPDEST PUSH1 0x0 DUP2 CALLDATALOAD SWAP1 POP PUSH2 0xBCC DUP2 PUSH2 0xBA6 JUMP JUMPDEST SWAP3 SWAP2 POP POP JUMP JUMPDEST PUSH1 0x0 DUP1 REVERT JUMPDEST PUSH1 0x0 PUSH1 0x1F NOT PUSH1 0x1F DUP4 ADD AND SWAP1 POP SWAP2 SWAP1 POP JUMP JUMPDEST PUSH32 0x4E487B7100000000000000000000000000000000000000000000000000000000 PUSH1 0x0 MSTORE PUSH1 0x41 PUSH1 0x4 MSTORE PUSH1 0x24 PUSH1 0x0 REVERT JUMPDEST PUSH2 0xC20 DUP3 PUSH2 0xBD7 JUMP JUMPDEST DUP2 ADD DUP2 DUP2 LT PUSH8 0xFFFFFFFFFFFFFFFF DUP3 GT OR ISZERO PUSH2 0xC3F JUMPI PUSH2 0xC3E PUSH2 0xBE8 JUMP JUMPDEST JUMPDEST DUP1 PUSH1 0x40 MSTORE POP POP POP JUMP JUMPDEST PUSH1 0x0 PUSH2 0xC52 PUSH2 0xB88 JUMP JUMPDEST SWAP1 POP PUSH2 0xC5E DUP3 DUP3 PUSH2 0xC17 JUMP JUMPDEST SWAP2 SWAP1 POP JUMP JUMPDEST PUSH1 0x0 PUSH8 0xFFFFFFFFFFFFFFFF DUP3 GT ISZERO PUSH2 0xC7E JUMPI PUSH2 0xC7D PUSH2 0xBE8 JUMP JUMPDEST JUMPDEST PUSH1 0x20 DUP3 MUL SWAP1 POP PUSH1 0x20 DUP2 ADD SWAP1 POP SWAP2 SWAP1 POP JUMP JUMPDEST PUSH1 0x0 DUP1 REVERT JUMPDEST PUSH1 0x0 PUSH2 0xCA7 PUSH2 0xCA2 DUP5 PUSH2 0xC63 JUMP JUMPDEST PUSH2 0xC48 JUMP JUMPDEST SWAP1 POP DUP1 DUP4 DUP3 MSTORE PUSH1 0x20 DUP3 ADD SWAP1 POP PUSH1 0x20 DUP5 MUL DUP4 ADD DUP6 DUP2 GT ISZERO PUSH2 0xCCA JUMPI PUSH2 0xCC9 PUSH2 0xC8F JUMP JUMPDEST JUMPDEST DUP4 JUMPDEST DUP2 DUP2 LT ISZERO PUSH2 0xCF3 JUMPI DUP1 PUSH2 0xCDF DUP9 DUP3 PUSH2 0xBBD JUMP JUMPDEST DUP5 MSTORE PUSH1 0x20 DUP5 ADD SWAP4 POP POP PUSH1 0x20 DUP2 ADD SWAP1 POP PUSH2 0xCCC JUMP JUMPDEST POP POP POP SWAP4 SWAP3 POP POP POP JUMP JUMPDEST PUSH1 0x0 DUP3 PUSH1 0x1F DUP4 ADD SLT PUSH2 0xD12 JUMPI PUSH2 0xD11 PUSH2 0xBD2 JUMP JUMPDEST JUMPDEST DUP2 CALLDATALOAD PUSH2 0xD22 DUP5 DUP3 PUSH1 0x20 DUP7 ADD PUSH2 0xC94 JUMP JUMPDEST SWAP2 POP POP SWAP3 SWAP2 POP POP JUMP JUMPDEST PUSH1 0x0 DUP1 PUSH1 0x40 DUP4 DUP6 SUB SLT ISZERO PUSH2 0xD42 JUMPI PUSH2 0xD41 PUSH2 0xB92 JUMP JUMPDEST JUMPDEST PUSH1 0x0 PUSH2 0xD50 DUP6 DUP3 DUP7 ADD PUSH2 0xBBD JUMP JUMPDEST SWAP3 POP POP PUSH1 0x20 DUP4 ADD CALLDATALOAD PUSH8 0xFFFFFFFFFFFFFFFF DUP2 GT ISZERO PUSH2 0xD71 JUMPI PUSH2 0xD70 PUSH2 0xB97 JUMP JUMPDEST JUMPDEST PUSH2 0xD7D DUP6 DUP3 DUP7 ADD PUSH2 0xCFD JUMP JUMPDEST SWAP2 POP POP SWAP3 POP SWAP3 SWAP1 POP JUMP JUMPDEST PUSH2 0xD90 DUP2 PUSH2 0xB9C JUMP JUMPDEST DUP3 MSTORE POP POP JUMP JUMPDEST PUSH1 0x0 PUSH1 0x20 DUP3 ADD SWAP1 POP PUSH2 0xDAB PUSH1 0x0 DUP4 ADD DUP5 PUSH2 0xD87 JUMP JUMPDEST SWAP3 SWAP2 POP POP JUMP JUMPDEST PUSH1 0x0 DUP1 REVERT JUMPDEST PUSH1 0x0 DUP1 DUP4 PUSH1 0x1F DUP5 ADD SLT PUSH2 0xDCC JUMPI PUSH2 0xDCB PUSH2 0xBD2 JUMP JUMPDEST JUMPDEST DUP3 CALLDATALOAD SWAP1 POP PUSH8 0xFFFFFFFFFFFFFFFF DUP2 GT ISZERO PUSH2 0xDE9 JUMPI PUSH2 0xDE8 PUSH2 0xDB1 JUMP JUMPDEST JUMPDEST PUSH1 0x20 DUP4 ADD SWAP2 POP DUP4 PUSH1 0x1 DUP3 MUL DUP4 ADD GT ISZERO PUSH2 0xE05 JUMPI PUSH2 0xE04 PUSH2 0xC8F JUMP JUMPDEST JUMPDEST SWAP3 POP SWAP3 SWAP1 POP JUMP JUMPDEST PUSH1 0x0 DUP1 PUSH1 0x20 DUP4 DUP6 SUB SLT ISZERO PUSH2 0xE23 JUMPI PUSH2 0xE22 PUSH2 0xB92 JUMP JUMPDEST JUMPDEST PUSH1 0x0 DUP4 ADD CALLDATALOAD PUSH8 0xFFFFFFFFFFFFFFFF DUP2 GT ISZERO PUSH2 0xE41 JUMPI PUSH2 0xE40 PUSH2 0xB97 JUMP JUMPDEST JUMPDEST PUSH2 0xE4D DUP6 DUP3 DUP7 ADD PUSH2 0xDB6 JUMP JUMPDEST SWAP3 POP SWAP3 POP POP SWAP3 POP SWAP3 SWAP1 POP JUMP JUMPDEST PUSH1 0x0 PUSH1 0x20 DUP3 DUP5 SUB SLT ISZERO PUSH2 0xE6F JUMPI PUSH2 0xE6E PUSH2 0xB92 JUMP JUMPDEST JUMPDEST PUSH1 0x0 PUSH2 0xE7D DUP5 DUP3 DUP6 ADD PUSH2 0xBBD JUMP JUMPDEST SWAP2 POP POP SWAP3 SWAP2 POP POP JUMP JUMPDEST PUSH1 0x0 PUSH20 0xFFFFFFFFFFFFFFFFFFFFFFFFFFFFFFFFFFFFFFFF DUP3 AND SWAP1 POP SWAP2 SWAP1 POP JUMP JUMPDEST PUSH1 0x0 PUSH2 0xEB1 DUP3 PUSH2 0xE86 JUMP JUMPDEST SWAP1 POP SWAP2 SWAP1 POP JUMP JUMPDEST PUSH2 0xEC1 DUP2 PUSH2 0xEA6 JUMP JUMPDEST DUP3 MSTORE POP POP JUMP JUMPDEST PUSH1 0x0 PUSH1 0x20 DUP3 ADD SWAP1 POP PUSH2 0xEDC PUSH1 0x0 DUP4 ADD DUP5 PUSH2 0xEB8 JUMP JUMPDEST SWAP3 SWAP2 POP POP JUMP JUMPDEST PUSH32 0x4E487B7100000000000000000000000000000000000000000000000000000000 PUSH1 0x0 MSTORE PUSH1 0x21 PUSH1 0x4 MSTORE PUSH1 0x24 PUSH1 0x0 REVERT JUMPDEST PUSH1 0x2 DUP2 LT PUSH2 0xF22 JUMPI PUSH2 0xF21 PUSH2 0xEE2 JUMP JUMPDEST JUMPDEST POP JUMP JUMPDEST PUSH1 0x0 DUP2 SWAP1 POP PUSH2 0xF33 DUP3 PUSH2 0xF11 JUMP JUMPDEST SWAP2 SWAP1 POP JUMP JUMPDEST PUSH1 0x0 PUSH2 0xF43 DUP3 PUSH2 0xF25 JUMP JUMPDEST SWAP1 POP SWAP2 SWAP1 POP JUMP JUMPDEST PUSH2 0xF53 DUP2 PUSH2 0xF38 JUMP JUMPDEST DUP3 MSTORE POP POP JUMP JUMPDEST PUSH1 0x0 PUSH1 0x20 DUP3 ADD SWAP1 POP PUSH2 0xF6E PUSH1 0x0 DUP4 ADD DUP5 PUSH2 0xF4A JUMP JUMPDEST SWAP3 SWAP2 POP POP JUMP JUMPDEST PUSH1 0x0 DUP1 REVERT JUMPDEST PUSH1 0x0 PUSH8 0xFFFFFFFFFFFFFFFF DUP3 GT ISZERO PUSH2 0xF94 JUMPI PUSH2 0xF93 PUSH2 0xBE8 JUMP JUMPDEST JUMPDEST PUSH2 0xF9D DUP3 PUSH2 0xBD7 JUMP JUMPDEST SWAP1 POP PUSH1 0x20 DUP2 ADD SWAP1 POP SWAP2 SWAP1 POP JUMP JUMPDEST DUP3 DUP2 DUP4 CALLDATACOPY PUSH1 0x0 DUP4 DUP4 ADD MSTORE POP POP POP JUMP JUMPDEST PUSH1 0x0 PUSH2 0xFCC PUSH2 0xFC7 DUP5 PUSH2 0xF79 JUMP JUMPDEST PUSH2 0xC48 JUMP JUMPDEST SWAP1 POP DUP3 DUP2 MSTORE PUSH1 0x20 DUP2 ADD DUP5 DUP5 DUP5 ADD GT ISZERO PUSH2 0xFE8 JUMPI PUSH2 0xFE7 PUSH2 0xF74 JUMP JUMPDEST JUMPDEST PUSH2 0xFF3 DUP5 DUP3 DUP6 PUSH2 0xFAA JUMP JUMPDEST POP SWAP4 SWAP3 POP POP POP JUMP JUMPDEST PUSH1 0x0 DUP3 PUSH1 0x1F DUP4 ADD SLT PUSH2 0x1010 JUMPI PUSH2 0x100F PUSH2 0xBD2 JUMP JUMPDEST JUMPDEST DUP2 CALLDATALOAD PUSH2 0x1020 DUP5 DUP3 PUSH1 0x20 DUP7 ADD PUSH2 0xFB9 JUMP JUMPDEST SWAP2 POP POP SWAP3 SWAP2 POP POP JUMP JUMPDEST PUSH1 0x0 PUSH1 0x20 DUP3 DUP5 SUB SLT ISZERO PUSH2 0x103F JUMPI PUSH2 0x103E PUSH2 0xB92 JUMP JUMPDEST JUMPDEST PUSH1 0x0 DUP3 ADD CALLDATALOAD PUSH8 0xFFFFFFFFFFFFFFFF DUP2 GT ISZERO PUSH2 0x105D JUMPI PUSH2 0x105C PUSH2 0xB97 JUMP JUMPDEST JUMPDEST PUSH2 0x1069 DUP5 DUP3 DUP6 ADD PUSH2 0xFFB JUMP JUMPDEST SWAP2 POP POP SWAP3 SWAP2 POP POP JUMP JUMPDEST PUSH1 0x0 DUP2 ISZERO ISZERO SWAP1 POP SWAP2 SWAP1 POP JUMP JUMPDEST PUSH2 0x1087 DUP2 PUSH2 0x1072 JUMP JUMPDEST DUP3 MSTORE POP POP JUMP JUMPDEST PUSH1 0x0 DUP2 MLOAD SWAP1 POP SWAP2 SWAP1 POP JUMP JUMPDEST PUSH1 0x0 DUP3 DUP3 MSTORE PUSH1 0x20 DUP3 ADD SWAP1 POP SWAP3 SWAP2 POP POP JUMP JUMPDEST PUSH1 0x0 JUMPDEST DUP4 DUP2 LT ISZERO PUSH2 0x10C7 JUMPI DUP1 DUP3 ADD MLOAD DUP2 DUP5 ADD MSTORE PUSH1 0x20 DUP2 ADD SWAP1 POP PUSH2 0x10AC JUMP JUMPDEST DUP4 DUP2 GT ISZERO PUSH2 0x10D6 JUMPI PUSH1 0x0 DUP5 DUP5 ADD MSTORE JUMPDEST POP POP POP POP JUMP JUMPDEST PUSH1 0x0 PUSH2 0x10E7 DUP3 PUSH2 0x108D JUMP JUMPDEST PUSH2 0x10F1 DUP2 DUP6 PUSH2 0x1098 JUMP JUMPDEST SWAP4 POP PUSH2 0x1101 DUP2 DUP6 PUSH1 0x20 DUP7 ADD PUSH2 0x10A9 JUMP JUMPDEST PUSH2 0x110A DUP2 PUSH2 0xBD7 JUMP JUMPDEST DUP5 ADD SWAP2 POP POP SWAP3 SWAP2 POP POP JUMP JUMPDEST PUSH1 0x0 PUSH1 0x40 DUP3 ADD SWAP1 POP PUSH2 0x112A PUSH1 0x0 DUP4 ADD DUP6 PUSH2 0x107E JUMP JUMPDEST DUP2 DUP2 SUB PUSH1 0x20 DUP4 ADD MSTORE PUSH2 0x113C DUP2 DUP5 PUSH2 0x10DC JUMP JUMPDEST SWAP1 POP SWAP4 SWAP3 POP POP POP JUMP JUMPDEST PUSH1 0x0 PUSH1 0x40 DUP3 ADD SWAP1 POP PUSH2 0x115A PUSH1 0x0 DUP4 ADD DUP6 PUSH2 0xEB8 JUMP JUMPDEST PUSH2 0x1167 PUSH1 0x20 DUP4 ADD DUP5 PUSH2 0xEB8 JUMP JUMPDEST SWAP4 SWAP3 POP POP POP JUMP JUMPDEST PUSH1 0x0 PUSH1 0x60 DUP3 ADD SWAP1 POP PUSH2 0x1183 PUSH1 0x0 DUP4 ADD DUP7 PUSH2 0xD87 JUMP JUMPDEST PUSH2 0x1190 PUSH1 0x20 DUP4 ADD DUP6 PUSH2 0xD87 JUMP JUMPDEST PUSH2 0x119D PUSH1 0x40 DUP4 ADD DUP5 PUSH2 0xD87 JUMP JUMPDEST SWAP5 SWAP4 POP POP POP POP JUMP JUMPDEST PUSH1 0x0 DUP2 SWAP1 POP SWAP2 SWAP1 POP JUMP JUMPDEST PUSH2 0x11B8 DUP2 PUSH2 0x11A5 JUMP JUMPDEST DUP3 MSTORE POP POP JUMP JUMPDEST PUSH1 0x0 PUSH8 0xFFFFFFFFFFFFFFFF DUP3 AND SWAP1 POP SWAP2 SWAP1 POP JUMP JUMPDEST PUSH2 0x11DB DUP2 PUSH2 0x11BE JUMP JUMPDEST DUP3 MSTORE POP POP JUMP JUMPDEST PUSH1 0x0 PUSH2 0xFFFF DUP3 AND SWAP1 POP SWAP2 SWAP1 POP JUMP JUMPDEST PUSH2 0x11F8 DUP2 PUSH2 0x11E1 JUMP JUMPDEST DUP3 MSTORE POP POP JUMP JUMPDEST PUSH1 0x0 PUSH4 0xFFFFFFFF DUP3 AND SWAP1 POP SWAP2 SWAP1 POP JUMP JUMPDEST PUSH2 0x1217 DUP2 PUSH2 0x11FE JUMP JUMPDEST DUP3 MSTORE POP POP JUMP JUMPDEST PUSH1 0x0 PUSH1 0xA0 DUP3 ADD SWAP1 POP PUSH2 0x1232 PUSH1 0x0 DUP4 ADD DUP9 PUSH2 0x11AF JUMP JUMPDEST PUSH2 0x123F PUSH1 0x20 DUP4 ADD DUP8 PUSH2 0x11D2 JUMP JUMPDEST PUSH2 0x124C PUSH1 0x40 DUP4 ADD DUP7 PUSH2 0x11EF JUMP JUMPDEST PUSH2 0x1259 PUSH1 0x60 DUP4 ADD DUP6 PUSH2 0x120E JUMP JUMPDEST PUSH2 0x1266 PUSH1 0x80 DUP4 ADD DUP5 PUSH2 0x120E JUMP JUMPDEST SWAP7 SWAP6 POP POP POP POP POP POP JUMP JUMPDEST PUSH1 0x0 DUP2 MLOAD SWAP1 POP PUSH2 0x127F DUP2 PUSH2 0xBA6 JUMP JUMPDEST SWAP3 SWAP2 POP POP JUMP JUMPDEST PUSH1 0x0 PUSH1 0x20 DUP3 DUP5 SUB SLT ISZERO PUSH2 0x129B JUMPI PUSH2 0x129A PUSH2 0xB92 JUMP JUMPDEST JUMPDEST PUSH1 0x0 PUSH2 0x12A9 DUP5 DUP3 DUP6 ADD PUSH2 0x1270 JUMP JUMPDEST SWAP2 POP POP SWAP3 SWAP2 POP POP JUMP JUMPDEST PUSH32 0x4E487B7100000000000000000000000000000000000000000000000000000000 PUSH1 0x0 MSTORE PUSH1 0x32 PUSH1 0x4 MSTORE PUSH1 0x24 PUSH1 0x0 REVERT JUMPDEST PUSH32 0x4E487B7100000000000000000000000000000000000000000000000000000000 PUSH1 0x0 MSTORE PUSH1 0x11 PUSH1 0x4 MSTORE PUSH1 0x24 PUSH1 0x0 REVERT JUMPDEST PUSH1 0x0 PUSH2 0x131B DUP3 PUSH2 0xB9C JUMP JUMPDEST SWAP2 POP PUSH2 0x1326 DUP4 PUSH2 0xB9C JUMP JUMPDEST SWAP3 POP DUP3 DUP3 LT ISZERO PUSH2 0x1339 JUMPI PUSH2 0x1338 PUSH2 0x12E1 JUMP JUMPDEST JUMPDEST DUP3 DUP3 SUB SWAP1 POP SWAP3 SWAP2 POP POP JUMP JUMPDEST PUSH32 0x4E487B7100000000000000000000000000000000000000000000000000000000 PUSH1 0x0 MSTORE PUSH1 0x12 PUSH1 0x4 MSTORE PUSH1 0x24 PUSH1 0x0 REVERT JUMPDEST PUSH1 0x0 PUSH2 0x137E DUP3 PUSH2 0xB9C JUMP JUMPDEST SWAP2 POP PUSH2 0x1389 DUP4 PUSH2 0xB9C JUMP JUMPDEST SWAP3 POP DUP3 PUSH2 0x1399 JUMPI PUSH2 0x1398 PUSH2 0x1344 JUMP JUMPDEST JUMPDEST DUP3 DUP3 MOD SWAP1 POP SWAP3 SWAP2 POP POP JUMP JUMPDEST PUSH1 0x0 DUP2 SWAP1 POP SWAP3 SWAP2 POP POP JUMP JUMPDEST POP JUMP JUMPDEST PUSH1 0x0 PUSH2 0x13BF PUSH1 0x0 DUP4 PUSH2 0x13A4 JUMP JUMPDEST SWAP2 POP PUSH2 0x13CA DUP3 PUSH2 0x13AF JUMP JUMPDEST PUSH1 0x0 DUP3 ADD SWAP1 POP SWAP2 SWAP1 POP JUMP JUMPDEST PUSH1 0x0 PUSH2 0x13E0 DUP3 PUSH2 0x13B2 JUMP JUMPDEST SWAP2 POP DUP2 SWAP1 POP SWAP2 SWAP1 POP JUMP INVALID LOG2 PUSH5 0x6970667358 0x22 SLT KECCAK256 0x27 SWAP13 SWAP3 COINBASE PUSH15 0xFA0B8C10EEB8011A437F3198966BCF 0xB8 RETURNDATACOPY 0xE5 MSTORE8 MSTORE8 0xBE CREATE SWAP1 0xCF DUP1 PUSH29 0x3B64736F6C634300080800330000000000000000000000000000000000 "},"gasEstimates":{"creation":{"codeDepositCost":"1030400","executionCost":"infinite","totalCost":"infinite"},"external":{"checkUpkeep(bytes)":"infinite","getEntranceFees()":"infinite","getInterval()":"infinite","getLastTimeStamp()":"2547","getLotteryState()":"2640","getNumWords()":"343","getPlayers(uint256)":"5034","getRecentWinner()":"2611","getRequesConfirmations()":"366","lotteryEntrance()":"infinite","performUpkeep(bytes)":"infinite","rawFulfillRandomWords(uint256,uint256[])":"infinite"},"internal":{"fulfillRandomWords(uint256,uint256[] memory)":"infinite"}},"methodIdentifiers":{"checkUpkeep(bytes)":"6e04ff0d","getEntranceFees()":"4a26d4f4","getInterval()":"91ad27b4","getLastTimeStamp()":"c1c244e8","getLotteryState()":"6b68c03c","getNumWords()":"53a2c19a","getPlayers(uint256)":"460e2049","getRecentWinner()":"473f1ddc","getRequesConfirmations()":"39af02e8","lotteryEntrance()":"8eaec52f","performUpkeep(bytes)":"4585e33b","rawFulfillRandomWords(uint256,uint256[])":"1fe543e3"}},"storageLayout":{"storage":[{"astId":251,"contract":"contracts/Lottery.sol:Lottery","label":"s_players","offset":0,"slot":"0","type":"t_array(t_address)dyn_storage"},{"astId":267,"contract":"contracts/Lottery.sol:Lottery","label":"s_last_time_stamped","offset":0,"slot":"1","type":"t_uint256"},{"astId":269,"contract":"contracts/Lottery.sol:Lottery","label":"s_recentWinner","offset":0,"slot":"2","type":"t_address"},{"astId":272,"contract":"contracts/Lottery.sol:Lottery","label":"s_lotteryState","offset":20,"slot":"2","type":"t_enum(lotteryState)246"}],"types":{"t_address":{"encoding":"inplace","label":"address","numberOfBytes":"20"},"t_array(t_address)dyn_storage":{"base":"t_address","encoding":"dynamic_array","label":"address[]","numberOfBytes":"32"},"t_enum(lotteryState)246":{"encoding":"inplace","label":"enum Lottery.lotteryState","numberOfBytes":"1"},"t_uint256":{"encoding":"inplace","label":"uint256","numberOfBytes":"32"}}},"userdoc":{"kind":"user","methods":{},"version":1}}}}